:100000000C9462000C948A000C948A000C948A0070
:100010000C948A000C948A000C948A000C948A0038
:100020000C948A000C948A000C948A000C948A0028
:100030000C948A000C948A000C948A000C948A0018
:100040000C94D6000C948A000C94EF010C948A0056
:100050000C948A000C948A000C948A000C948A00F8
:100060000C948A000C948A000000000024002700F1
:100070002A0000000000250028002B0000000000DE
:1000800023002600290004040404040404040202DA
:100090000202020203030303030301020408102007
:1000A0004080010204081020010204081020000012
:1000B0000007000201000003040600000000000029
:1000C0000000600311241FBECFEFD8E0DEBFCDBF1C
:1000D00011E0A0E0B1E0ECE2F9E002C005900D9281
:1000E000A032B107D9F711E0A0E2B1E001C01D9242
:1000F000A03CB107E1F710E0C4ECD0E004C02297C7
:10010000FE010E949004C23CD107C9F70E94CF00B3
:100110000C9494040C9400008DEA91E00E94250355
:1001200080931401813651F48091120161E00E94A4
:10013000A2018DEA91E060E071E00BC08236D1F45B
:100140008091120160E00E94A2018DEA91E06DE0D1
:1001500071E00E9400048DEA91E066E071E00E9487
:10016000D1038DEA91E0609114010E94F00388E7C9
:100170008093140164E670E080E090E00E941E012C
:1001800008958DEA91E040E855E260E070E00E9459
:100190002C028091120161E00E94820108950E9468
:1001A00048010E94C1000E948C00FDCF1F920F9257
:1001B0000FB60F9211242F933F938F939F93AF937A
:1001C000BF938091240190912501A0912601B091C7
:1001D0002701309128010196A11DB11D232F2D5F0C
:1001E0002D3720F02D570196A11DB11D2093280118
:1001F0008093240190932501A0932601B0932701B9
:100200008091200190912101A0912201B0912301C0
:100210000196A11DB11D8093200190932101A0930F
:100220002201B0932301BF91AF919F918F913F9194
:100230002F910F900FBE0F901F901895EF92FF9285
:100240000F931F937B018C018FB7F8944091240189
:100250005091250160912601709127018FBF2FB722
:10026000F8948091240190912501A0912601B091EC
:1002700027012FBF841B950BA60BB70BE816F906B9
:100280000A071B0760F71F910F91FF90EF900895E9
:10029000789484B5826084BD84B5816084BD85B561
:1002A000826085BD85B5816085BDEEE6F0E0808128
:1002B00081608083E1E8F0E08081826080838081DA
:1002C00081608083E0E8F0E0808181608083E1EB01
:1002D000F0E0808184608083E0EBF0E080818160E9
:1002E0008083EAE7F0E0808184608083808182609F
:1002F0008083808181608083808180688083109288
:10030000C1000895282F30E0C90186569F4FFC0197
:1003100094912A573F4FF9018491882391F0E82F57
:10032000F0E0EE0FFF1FE859FF4FA591B49166234F
:1003300029F48C91909589238C9308958C91892B25
:100340008C930895482F50E0CA0182559F4FFC01BD
:100350002491CA0186569F4FFC0194914A575F4FE2
:10036000FA0134913323D1F1222331F1233021F4E6
:10037000809180008F7705C0243031F48091800017
:100380008F7D8093800018C0213019F484B58F7759
:1003900004C0223021F484B58F7D84BD0DC0263089
:1003A00021F48091B0008F7705C0273029F4809127
:1003B000B0008F7D8093B000E32FF0E0EE0FFF1FC1
:1003C000EE58FF4FA591B491662329F48C91909536
:1003D00089238C9308958C91892B8C9308951F9277
:1003E0000F920FB60F9211242F933F934F935F9369
:1003F0006F937F938F939F93AF93BF93EF93FF93ED
:100400004091C600E091A901F091AA01CF010196A7
:1004100060E870E00E942A049C018091AB019091F9
:10042000AC012817390739F0E75DFE4F4083309360
:10043000AA012093A901FF91EF91BF91AF919F91E4
:100440008F917F916F915F914F913F912F910F907D
:100450000FBE0F901F9018955F926F927F928F92B0
:100460009F92AF92BF92CF92DF92EF92FF920F9343
:100470001F93CF93DF93EC013A014B01413482E4A7
:1004800058078FE0680780E078070CF07FC060E8CD
:1004900074E88EE190E0A40193010E945F04215072
:1004A000304040405040CA01B90122E030E040E015
:1004B00050E00E945F0459016A01A6019501209550
:1004C00030954095509594E0220F331F441F551FDF
:1004D0009A95D1F760E074E284EF90E00E945F04A7
:1004E000CA01B9012FEF30E040E050E00E940B0458
:1004F000A40193010E945F04C90181509F4F181607
:1005000019061CF4522E5A9403C055245394521ABF
:1005100060E079E08DE390E0A40193010E945F0424
:100520002150304040405040CA01B90122E030E043
:1005300040E050E00E945F04209530954095509532
:1005400083E0220F331F441F551F8A95D1F760E0C7
:1005500074E284EF90E00E945F04CA01B9012FEFBA
:1005600030E040E050E00E940B04A40193010E949F
:100570005F04C90181509F4F181619061CF4822F81
:10058000815002C081E0821B851500F5E885F98560
:1005900081E090E00A8802C0880F991F0A94E2F770
:1005A000808360E079E08DE390E0A40193010E94F4
:1005B0005F042150304040405040CA01B90122E060
:1005C00030E040E050E00E945F0404C0E885F98517
:1005D00010829501EC81FD813083EE81FF812083C3
:1005E000EA85FB85208141E050E0CA010E8402C00B
:1005F000880F991F0A94E2F7282B2083EA85FB8550
:100600002081CA010F8402C0880F991F0A94E2F763
:10061000282B2083EA85FB858081088802C0440F4F
:10062000551F0A94E2F7842B8083DF91CF911F91AD
:100630000F91FF90EF90DF90CF90BF90AF909F9081
:100640008F907F906F905F900895CF93DF93DC0140
:100650001296ED91FC911397EF01CE57DF4F488131
:100660005981E058FF4F80819181E058F040841714
:10067000950719F42FEF3FEF0CC0E40FF51F208111
:10068000CA01019660E870E00E942A049983888379
:1006900030E0C901DF91CF910895FC01A085B185BB
:1006A00021898C9190E0022E02C0959587950A943D
:1006B000E2F780FFF6CF0484F585E02D608308958E
:1006C00089E191E09093AE018093AD0189E291E0E0
:1006D0009093B0018093AF0185EC90E09093B201CC
:1006E0008093B10184EC90E09093B4018093B301C6
:1006F00080EC90E09093B6018093B50181EC90E09E
:100700009093B8018093B70186EC90E09093BA0182
:100710008093B90184E08093BB0183E08093BC01A6
:1007200087E08093BD0185E08093BE0181E08093E6
:10073000BF0108950F931F93CF93DF938C01EB01BB
:1007400009C02196D801ED91FC910190F081E02D36
:10075000C801099568816623A1F7DF91CF911F91A8
:100760000F910895EF92FF920F931F93CF93DF9312
:100770008C017B01EA010CC0D7016D917D01D8018C
:10078000ED91FC910190F081E02DC8010995219730
:10079000209791F7DF91CF911F910F91FF90EF90EC
:1007A0000895DC01ED91FC910280F381E02D099523
:1007B00008950F931F938C01DC01ED91FC91019042
:1007C000F081E02D6DE00995D801ED91FC9101904B
:1007D000F081E02DC8016AE009951F910F910895FD
:1007E0000F931F938C01DC01ED91FC910190F0813E
:1007F000E02D0995C8010E94D9031F910F9108951A
:100800000F931F938C010E94D103C8010E94D9034A
:100810001F910F910895629FD001739FF001829FF5
:10082000E00DF11D649FE00DF11D929FF00D839F7F
:10083000F00D749FF00D659FF00D9927729FB00D1C
:10084000E11DF91F639FB00DE11DF91FBD01CF012F
:100850001124089597FB092E07260AD077FD04D0AE
:1008600049D006D000201AF4709561957F4F089505
:10087000F6F7909581959F4F0895A1E21A2EAA1B35
:10088000BB1BFD010DC0AA1FBB1FEE1FFF1FA21740
:10089000B307E407F50720F0A21BB30BE40BF50B3D
:1008A000661F771F881F991F1A9469F760957095C6
:1008B000809590959B01AC01BD01CF01089597FBF8
:1008C000092E05260ED057FD04D0D7DF0AD0001C14
:1008D00038F450954095309521953F4F4F4F5F4FDD
:1008E0000895F6F790958095709561957F4F8F4F9D
:1008F0009F4F0895AA1BBB1B51E107C0AA1FBB1F36
:10090000A617B70710F0A61BB70B881F991F5A959B
:10091000A9F780959095BC01CD010895EE0FFF1FBA
:0C0920000590F491E02D0994F894FFCFAD
:10092C00535441525400636861723A200053544F3F
:10093C0050000D0078000000004D039A03B2030034
:00000001FF
